:020000040800F2
:1000000020C90220D1020008BB25000835220008C3
:10001000B92500088B080008D1590008000000002D
:100020000000000000000000000000000D020008B9
:10003000D70900080000000069020008AD2A000886
:10004000EB020008EB020008EB020008EB020008DC
:10005000EB020008EB020008EB020008EB020008CC
:10006000EB020008EB020008EB020008EB020008BC
:10007000EB020008EB020008EB020008EB020008AC
:10008000EB020008EB020008EB020008EB0200089C
:10009000EB020008EB020008EB020008EB0200088C
:1000A000EB020008EB020008EB020008EB0200087C
:1000B000EB020008EB020008EB020008EB0200086C
:1000C000EB020008EB020008EB020008EB0200085C
:1000D000EB02000809310008EB020008EB020008FF
:1000E000EB020008EB020008EB020008EB0200083C
:1000F000EB020008EB020008EB020008EB0200082C
:10010000EB020008EB020008EB020008EB0200081B
:10011000EB020008EB020008EB020008EB0200080B
:10012000EB020008EB020008EB020008EB020008FB
:10013000EB020008EB020008EB020008EB020008EB
:10014000EB020008EB020008EB020008E1250008C2
:10015000EB020008EB020008EB020008EB020008CB
:10016000EB020008EB020008EB020008EB020008BB
:10017000EB020008EB020008EB02000800000000A0
:10018000EB020008EB020008EB020008EB0200089B
:10019000EB020008EB020008EB020008EB0200088B
:1001A000EB020008EB020008EB020008EB0200087B
:1001B000EB020008EB020008EB020008EB0200086B
:1001C000EB020008EB02000800000000EB02000850
:1001D000EB020008EB020008EB020008EB0200084B
:1001E000EB020008EB020008EB020008EB0200083B
:1001F000EB020008EB020008DFF80CD000F0C4FAB4
:10020000004800474966000820C902202D4B1968A4
:100210000868B0E8F04F80F30988BFF36F8F4FF0A4
:10022000000080F311887047000000000848006853
:10023000006880F308884FF0000080F3148862B6ED
:1002400061B6BFF34F8FBFF36F8F00DF00BF00BFFA
:1002500008ED00E0DFF80C00016841F47001016076
:10026000704700BF88ED00E0EFF30980BFF36F8FA8
:10027000144B1A681EF0100F08BF20ED108A20E9F9
:10028000F04F106009B44FF0400072B680F311884F
:10029000BFF34F8FBFF36F8F62B607F085F84FF053
:1002A000000080F3118809BC19680868B0E8F04FB5
:1002B0001EF0100F08BFB0EC108A80F30988BFF35E
:1002C0006F8F704768000220EFF3058070470000D1
:1002D0000648804706480047FEE7FEE7FEE7FEE7E0
:1002E000FEE7FEE7FEE7FEE7FEE7FEE7492C000833
:1002F000F90100082DE9F05F0546002092469B4673
:1003000088460646814640241BE02846414647462B
:10031000224600F070F853465A46C01A914110D355
:1003200011461846224600F057F82D1A67EB0108CF
:100330004F4622460120002100F04EF817EB00093D
:100340004E41201EA4F10104DFDC484631462A4616
:100350004346BDE8F09F40EA01039B0703D009E054
:1003600008C9121F08C0042AFAD203E011F8013BA1
:1003700000F8013B521EF9D27047D2B201E000F8FA
:10038000012B491EFBD270470022F6E710B5134639
:100390000A4604461946FFF7F0FF204610BD421CEE
:1003A00010F8011B0029FBD1801A704730B50B46AD
:1003B000014600202022012409E021FA02F59D4295
:1003C00005D303FA02F5491B04FA02F52844151E69
:1003D000A2F10102F1DC30BD202A04DB203A00FA50
:1003E00002F1002070479140C2F1200320FA03F38C
:1003F000194390407047202A04DB203A21FA02F08A
:100400000021704721FA02F3D040C2F1200291404E
:100410000843194670472DE9FE4F804681EA0300E4
:10042000C00F0C46009021F0004123F00045B8EBCE
:100430000200A94105D24046214690461C460B4683
:10044000024623F00040104347D0270DC7F30A00AF
:10045000C3F30A510290401A019040286BDAC3F3AB
:10046000130040F4801B0098924620B10023D2EB89
:10047000030A63EB0B0B01985946C0F1400250464A
:10048000FFF7AAFF06460D4650465946019A00F06E
:100490008DF910EB08006141002487EA115284EACB
:1004A000E7731A4340D0009A62B3019A012A4FEAD7
:1004B000075215DC001B61EB02014FF0004202EA1B
:1004C0000752CDE90042001C41F5801132462B460F
:1004D00000F08DF903B0BDE8F08F40462146F9E702
:1004E000001B61EB0201001C41F5801300185B4109
:1004F0002018A2F5001747EB030140EAD570B619A2
:100500006D4111E06D084FEA360645EAC0754FEAC5
:100510000752001B61EB0201001C41F580114908E4
:100520004FEA30000019514132462B4603B0BDE876
:10053000F04F00F04DB90098012240000023D0EBAD
:10054000020263EBE073009821464FEAE074B8EBD7
:10055000000061EB0401E9E783F000435BE781F011
:10056000004158E72DE9FE4F81EA030404F00044FE
:1005700021F0004100944FF0000B23F0004350EABB
:1005800001045ED052EA03045BD0C3F30A54C1F302
:100590000A552C44A4F2F3340194A0FB0254C1F395
:1005A000130141F48011C3F3130343F4801301FBDF
:1005B000024400FB034E840A970A44EA815447EA46
:1005C0008357A4FB076802958D0A05FB07854FEA50
:1005D000932C04FB0C542705029D4FEA065847EA6A
:1005E0001637B5EB08056EEB070C870E920E47EA3F
:1005F000811742EA8312A7FB0201B6EB0B0164EB01
:1006000000042B0D43EA0C335E1844EB1C50DA4611
:100610005146E7FB0201C5F313044FEA0B3343EAEB
:1006200014534FEA0432019C43EA0603A4F10C047C
:100630000294009CCDE900B400F0D9F803B0BDE805
:10064000F08F00200146F9E72DE9F04D81EA03041F
:1006500004F0004B21F0004514464FF0000A23F04F
:10066000004150EA050220D054EA01021DD0C5F332
:100670000A570246C5F31303C1F31300C1F30A5628
:1006800040F4801543F48013A7EB0608101BD646F0
:1006900008F2FD3873EB050002D308F1010801E010
:1006A00092185B41B8F1000F03DA00200146BDE863
:1006B000F08D00204FF48011064684460EE0171B93
:1006C00073EB050705D3121B63EB050306434CEAE6
:1006D000010C49084FEA300092185B4150EA0107CB
:1006E000EDD152EA030012D082EA040083EA050148
:1006F000084305D0101BAB4106D20122002306E0BF
:1007000000224FF0004302E06FF0010253101AEB99
:1007100006004CEB085110EB0A0041EB0B01BDE861
:10072000F04D00F055B8C1F30A52C1F3130140F285
:10073000FF3341F480119A4202DA002001467047EB
:1007400040F233439A42A2F2334202DC5242FFF7B4
:1007500052BEFFF741BE000030B5041E71F1000427
:1007600004DB4FF00044404264EB0101141E73F1BE
:10077000000405DB1C464FF00043524263EB0403C8
:10078000994208BF904230BD064C074D06E0E06834
:1007900040F0010394E8070098471034AC42F6D3C8
:1007A000FFF72EFD1C7D00083C7D0008202A06DB9B
:1007B000CB17203A41FA02F043EAE07306E041FA2F
:1007C00002F3D040C2F1200291400843194670471D
:1007D00010B5141E73F1000408DA401C41F1000149
:1007E00092185B411A4301D120F0010010BD2DE9A0
:1007F000F04D92469B4611B1B1FA81F202E0B0FA97
:1008000080F220329046FFF7E7FD04460F4640EAAB
:100810000A0041EA0B0153465A46084313D01146D9
:1008200053EA010019D0C8F140025046FFF7E3FD3A
:1008300005460E46504659464246FFF7CDFD084351
:1008400005D0012004E020463946BDE8F08D0020A7
:10085000054346EAE0762C4337430A986305E40AE9
:10086000A0EB08000022FD0A44EA47540A3002D5F2
:1008700000200146E9E7010510196941DDE9084555
:1008800000196941BDE8F04DA2E7FEE770B50546E5
:10089000D0F87C02C46994F84E00032811D00428D3
:1008A00018D1217B284603F03DFB012813D00228F4
:1008B00010D1D5F8D0020022BDE87040042105F027
:1008C000CFBF237B2846628B216A02F059FC0420AB
:1008D00084F84E0070BD217B284603F0FDFA0146E6
:1008E000A06A89B288420BD0628B8A4208D2226AFF
:1008F000431AA362032084F84E0011442162D8E712
:10090000002084F84E00284602F0B8FCD1E7F8B584
:100910000546D0F87C020126C46994F84D000128F0
:100920000CD0022818D1617B284603F0FBFA01287D
:1009300013D0022810D184F84D6020E0228B606A29
:100940000096637B9042E16900D882B2284602F0AB
:1009500027FC022084F84D00F8BD208B0021626A3C
:10096000824206D9E369121A62621844E061E2D158
:1009700000E06162284684F84D1002F011FDD5F8C0
:10098000D0020022BDE8F840042105F069BF000054
:1009900000214FEA010210B500EB8203521C0F2A1E
:1009A000C3F88412F8D300224FF400738418521C49
:1009B0009A422177FAD3012201704023417082705C
:1009C000C0F8C01202768371417680F81C1280F85C
:1009D0001D22002010BD7047F0B5D1E90125D1E9F5
:1009E0000343D1E905762A43D1F800C044EA030461
:1009F000D1E9073542EA0402496A42EA0702BCF13A
:100A0000010F42EA060208D004681A432A430A4347
:100A1000E30BDB031A4302600BE0066844682B43D8
:100A200026F4F84529430B4303606FF30E04224379
:100A300042600020F0BD426942EA4101416100206C
:100A4000704738B591E81C00C9686FF01F051A435C
:100A500005EB441444EA41210A430092026100205C
:100A600038BD00002DE9F043914691E81C006FF07D
:100A70000F05521E2E0105EB03131A430B7E06EBE6
:100A800004268C8A2F034FEA054C0D8A32434FF01F
:100A90007F4808EB0366CB68B9F1010F07EB05450A
:100AA0000CEB04540CD081683F1107EB03331A435D
:100AB0002A432243324301F070410A43826011E02D
:100AC0008168DFF828C0C7681B03A3F58053234360
:100AD0002A4301EA0C0132430B43836007F0704460
:100AE0002243C2600020BDE8F0830000FF0F0FFF2B
:100AF0000549064810B502F094FB0348D0E90012FE
:100B0000C0E9021210BD000058000220CC040220EF
:100B100090F83510022903D08021416501207047EB
:100B2000052180F835100068016821F0010101609D
:100B30000020704770B5044600F004F90546601CBB
:100B400002D004480078044400F0FCF8401BA042A6
:100B5000FAD370BD000002202DE9F84FDFF89CE1C8
:100B600000224FF001084FF0030B4FF00F0A00BFB7
:100B70000B6808FA02F42340A34271D14D68022D9C
:100B800001D0122D0FD1D5080E69570700EB85054E
:100B9000A9462D6AFF0E0AFA07FCBE4025EA0C059D
:100BA0002E43C9F820600F79550006680BFA05FC42
:100BB00007F0030726EA0C06AF40374307604E688C
:100BC000012E05D0022E03D0112E01D0122E0ED1EF
:100BD0008668CF6826EA0C06AF40374387604668D0
:100BE0000F79A643C7F30017974037434760C4689F
:100BF0008E6824EA0C04AE402643C6604C68E400CC
:100C000075D53F4C256845F480452560246822F061
:100C10000306950704F4804400943A4C2D0F2644B3
:100C2000D6F80848DFF8E0C00AFA05F7604524EA7C
:100C3000070401D100272EE0344FB84201D101272B
:100C400029E0334FB84201D1022724E0314FB842A6
:100C500001D103271FE0304FB84202D104271AE028
:100C600045E02E4FB84201D1052714E02C4FB84281
:100C700001D106270FE02B4FB84201D107270AE028
:100C8000294FB84201D1082705E0284FB84201D1C9
:100C9000092700E00A27AF4027437546C6F80878C1
:100CA0004E68DEF80040F60324EA030400D51C4336
:100CB000124E2C60361D4D683468AD0324EA0304DF
:100CC00000D51C430D4F346008374D683C68ED0279
:100CD00024EA030400D51C43084D3C600C354E68E3
:100CE0002C68B60224EA030400D51C432C60521C75
:100CF000102AFFF43DAFBDE8F88F0000003C014032
:100D0000443802400030014000000240000402402C
:100D100000080240000C0240001002400014024093
:100D200000180240001C0240002002400024024043
:100D30000069084000D0012070470AB18161704706
:100D40000904FBE7014880687047000000000220AA
:100D5000D0F8940203F05DB8D0F8940203F076B8AE
:100D6000006804F07FBB006804F080BB01EB8101E8
:100D700000EBC10090F85C00704701EB810100EBD3
:100D8000C100C06C704710B5044690F8900201286D
:100D900009D0012084F89002206804F072FB002042
:100DA00084F8900210BD022010BD2DE9FE4F0446CC
:100DB0009A46DDE90D8094F89032DDF83090012BF1
:100DC00028D001EB81034FF0000B012684F89062DC
:100DD00004EBC30302F07F074FEAD21C83F83DB057
:100DE00083F838A0A3F8400083F8391083F83F80D7
:100DF00083F83A7083F83BC083F83C905346CDF8B3
:100E00000090CDE90180206804F0A0FB84F890B246
:100E1000BDE8FE8F0220FBE7D0F8940203F0BCB8D7
:100E20002DE9F04101EB81044FF0020600EBC40410
:100E3000DDF818E0DDE907C7BEF1000F84F83B20BC
:100E400084F83F300CD084F8426000BF4FF00005BA
:100E500053B1012B2BD0022B0FD0032B13D10CE05D
:100E6000032584F84250F1E7BEF1010F0BD152B9CE
:100E7000D7B9012284F8512003E0AAB194F8502098
:100E8000AAB184F84260C4E911C784F85C50E564F3
:100E900084F8391004F1380184F85D50027C006850
:100EA000BDE8F04104F0CABB94F85120E8E784F8AB
:100EB0004250E8E72DE9F041044600680025064667
:100EC00004F0DBFA01287DD1206804F0E7FC00285B
:100ED00078D0206804F0E2FC800203D521684FF44A
:100EE00000104861206804F0D9FCC00203D52168D5
:100EF0004FF480104861206804F0D0FC400103D515
:100F000021684FF080604861206804F0C7FC8007CA
:100F100002D5216802204861206804F0BFFC8000EF
:100F200010D5D6F8400420F02E00C6F84004204624
:100F3000FFF712FF2068012104F094FC21684FF0B4
:100F400000504861206804F0A9FCC00102D5204689
:100F500001F0DAF8206804F0A1FC000705D520466E
:100F600000F0BDF8216808204861206804F096FC74
:100F7000800120D5206804F05CFB07464FF0010893
:100F800012E000BF08FA05F038420CD006EB45101D
:100F9000D0F80005E9B20004204602D500F085FE35
:100FA00001E000F098FF6D1CA068A842EAD8216813
:100FB0004FF000704861206804F070FCC0060ED548
:100FC000206800E00BE0816921F01001816120467A
:100FD00001F0F6F82068816941F010018161BDE8F7
:100FE000F08130B504008BB026D0032084F8910244
:100FF000204600F023F8206804F0DEF904F1100127
:10100000684628220D46FFF7A6F994E80F0004F081
:101010007FF92068012104F06DFC282229466846EA
:10102000FFF799F994E80F0004F0BAFB012084F867
:10103000910200200BB030BD0120FBE7204810B525
:1010400086B0016841F001010160016801F0010111
:101050000591016841F04001016000680221002211
:1010600000F04000059003230A244FF4C0508DE89F
:101070001F0014486946FFF76FFD0121032001F0AE
:10108000F1FA0F48001D016841F08001016000681D
:1010900000F0800005900A481430016841F4804156
:1010A000016000680022062100F480400590432082
:1010B00000F08CF8432000F07EF806B010BD000070
:1010C0003038024000000240D0F8940202F079BFAC
:1010D000D0F8940202F079BF006804F0F2BBD0F8B7
:1010E000940202F023BF10B5044690F89002012844
:1010F0000DD0012084F89002206804F08BF920685C
:10110000012104F071F9002084F8900210BD022042
:1011100010BD10B5044690F89002012809D00120B6
:1011200084F89002206804F0FBFB002084F8900211
:1011300010BD022010BD00000248816802781144F1
:101140008160704700000220094810B5016841F431
:1011500000710160016841F480710160032000F0BA
:1011600055F80F2000F006F800F024F8002010BD1C
:10117000003C024070B50D4D04464FF47A700C4AA5
:1011800029781268B0FBF1F0B2FBF0F000F0CEFB72
:1011900048B9102C07D200222146501E00F016F844
:1011A00000206C6070BD012070BD000000000220B6
:1011B000540002207047410900F01F0289000120FD
:1011C00001F1E0219040C1F8000170470E4BF0B4EE
:1011D0001B680D46C3F30223C3F10706042E00D992
:1011E0000426191D072901D2002300E0DB1E01247B
:1011F00004FA06F19C40491E2940641E994014409F
:101200002143F0BC01F0DAB90CED00E0064900F032
:10121000070210B54FF6FF040868044B204040EA6F
:1012200002201843086010BD0CED00E00000FA0534
:101230001848F8B5016841F0805101600068164C0B
:1012400000F080500090206840F480302060FFF76C
:1012500079FD4FF47A76054605E000BFFFF772FD91
:10126000401BB0420FD86068C003F7D5206840F437
:1012700000302060FFF766FD054606E0FFF762FDDF
:10128000401BB04201D90320F8BD60688003F5D54A
:101290000020F8BD40380240007000402DE9F047C2
:1012A00005000F4663D0444E306800F00F00B8428E
:1012B00009D2306820F00F0038433060306800F009
:1012C0000F00B84253D128683C4C810712D5400723
:1012D00003D5206840F4E05020602878000703D54B
:1012E000206840F460402060A968206820F0F00089
:1012F000084320602878C0072AD030496868083938
:10130000012810D00968022810D0890700292EDA98
:10131000216821F0030101432160FFF713FD80469E
:1013200041F288390DE009688903EFE78901EDE7AB
:10133000FFF708FDA0EB0801494502D90320BDE8ED
:10134000F0876868216801F00C01B1EB800FEFD1E4
:10135000306800F00F00B8420BD9306820F00F0061
:1013600038433060306800F00F00B84201D00120EF
:10137000E5E72878400705D5E968206820F4E050C3
:10138000084320602878000706D52869216821F4E1
:10139000604141EAC000206000F036F82168084A48
:1013A000C1F30311515CC840064908600F20FFF7E4
:1013B000E1FE0020C3E70000003C02400838024084
:1013C000887C000854000220044905480968006828
:1013D000044AC1F38221515CC8407047083802407A
:1013E00054000220987C00080449054809680068F8
:1013F000044AC1F34231515CC8407047083802408A
:1014000054000220987C0008154910B51548096859
:1014100011F00C0213D01449042A0FD0082A0ED15F
:101420000F4C241F2268236802F03F025B0207D59D
:101430002068C0F38810A0FB010106E0084610BD3B
:101440002168C1F38811A1FB00010023FEF752FFC0
:101450002168C1F30141491C4900B0FBF1F010BD06
:10146000083802400024F40040787D012DE9F84F4F
:1014700005004FF000076ED02878DFF82093A9F11F
:10148000040AC007AAF104044CD0D9F80010484659
:10149000C1F38101012908D00068C0F3810002284E
:1014A0000AD1DAF80000400206D52068800339D559
:1014B00068680028DFD035E06868B0F5803F0BD061
:1014C00010B1B0F5A02F11D0206820F4803020603A
:1014D000206820F4802002E0206840F48030206002
:1014E000686890B1FFF72EFC06460AE0206840F4D9
:1014F00080202060F0E700BFFFF724FC801B6428F9
:1015000072D820688003F7D50CE0FFF71BFC064675
:1015100005E000BFFFF716FC801B6428F0D82068A8
:101520008003F7D42878800742D5D9F800104846C0
:1015300011F00C0F08D00068C0F3810002280BD115
:10154000DAF80000400207D42068800718D5E86860
:10155000012800D114E01EE1E8680028206817D0B7
:1015600040F001002060FFF7EDFB064605E000BFFC
:10157000FFF7E8FB801B0228C2D820688007F7D558
:101580002869216821F0F80141EAC00020600FE0DD
:1015900020F001002060FFF7D5FB064605E000BF04
:1015A000FFF7D0FB801B02281ED820688007F7D4E5
:1015B0002878000729D5794869696C300029804668
:1015C000016812D041F001010160FFF7BBFB064644
:1015D00005E000BFFFF7B6FB801B022804D8D8F84F
:1015E00000008007F6D510E089E021F001010160DC
:1015F000FFF7A8FB064604E0FFF7A4FB801B0228C8
:101600007DD8D8F800008007F6D4287840076BD53D
:10161000DFF8888108F13808D8F80000C0000BD442
:10162000D8F8001041F08051C8F80010D8F8000038
:10163000012700F08050009059480168C90512D474
:101640000168834641F480710160FFF77BFB064629
:1016500005E000BFFFF776FB801B64284FD8DBF85E
:101660000000C005F6D54D4EA868683601280AD09E
:1016700008B1052811D0306820F0010030603068D2
:1016800020F0040002E0306840F001003060A868FB
:10169000A0B1FFF757FB83460CE0306840F0040030
:1016A0003060F0E7FFF74EFBA0EB0B0141F2883012
:1016B000814268D830688007F4D50EE0FFF742FB1E
:1016C000834607E0FFF73EFBA0EB0B0141F28830B9
:1016D000814258D830688007F4D42FB1D8F8001070
:1016E00021F08051C8F80010A869E0B3D9F80010C3
:1016F000C1F3810102294ED00228206800E042E0B7
:1017000020F08070206003D0FFF71CFB05463DE011
:10171000FFF718FB064604E0FFF714FB801B0228C6
:1017200031D820688001F7D4D5E90921DFF874C0E9
:10173000D5E9070695F830304F0895F82C1030435E
:101740000CEB074545EA8212104340EA016040EA8B
:101750000370CAF80000206840F080702060FFF736
:10176000F1FA054605E014E0FFF7ECFA401B022809
:1017700009D820688001F7D50BE000BFFFF7E2FA37
:10178000401B022802D90320BDE8F88F20688001A1
:10179000F4D40020F8E70120F6E700000838024002
:1017A000007000400000FFFF70B504000D4603D03C
:1017B00094F82C0010B107E0012070BD002084F8DF
:1017C0002D00204600F012F8022084F82C0020683A
:1017D000211DFFF701F9D4E900022946FFF742F97C
:1017E000012084F82C00002070BD00002E4810B5A8
:1017F00086B0016841F001010160006800F001005D
:10180000059029480838016841F004010160016829
:1018100001F004010591016841F0080101600168CF
:1018200001F008010591016841F0100101600168B3
:1018300001F010010591016841F02001016001688B
:1018400001F020010591016841F04001016000684C
:101850000221012200F0400005900D2003230C24FA
:101860008DE81F0011486946FFF776F94CF20370C6
:1018700000900F486946FFF76FF94FF683700090AC
:101880000C486946FFF768F94FF63F0000900A4898
:101890006946FFF761F948F237100090074869463A
:1018A000FFF75AF906B010BD383802400008024070
:1018B000000C0240001002400014024000180240D8
:1018C00010B5044690F82C00022809D0022084F8B4
:1018D0002C002068FFF7AFF8012084F82C000020CE
:1018E00010BD000070B5044690F82C000D4602288B
:1018F0000DD0022084F82C002068FFF7A2F8286899
:10190000022805D05FF0010084F82C00002070BD93
:101910000520F9E704284FF0E020016903D021F009
:1019200004010161704741F00401FAE7401EB0F183
:10193000807F10B501D3012010BD4FF0E02460611D
:101940000F21601700F03AFE0020A06107212161FD
:1019500010BD704790F8691090F86A00084370470E
:1019600070B501680446C8690A688B6810F00F0FEB
:101970005CD003F0010502F490762E4369D0C607CF
:1019800007D0D60505D501260E62E16E41F00101B2
:10199000E166810708D5D90706D0266802213162A1
:1019A000E16E41F00401E166410708D5D90706D090
:1019B000236804211962E16E41F00201E16601072A
:1019C0000AD502F02001294306D0236808211962B4
:1019D000E16E41F00801E166E16E002932D0800637
:1019E00004D5900602D5204601F0F4F9E06E000718
:1019F00003D420688068400625D5204601F0DCF934
:101A00002068816849061AD5816821F0400181600B
:101A1000606EA0B12F490165606EFFF779F800286C
:101A200010D0606E016DBDE870400847830610D588
:101A300093060ED52046BDE8704001F0CBB9204694
:101A4000FFF787FF70BD2046FFF783FF0020E066A9
:101A500070BD03062FD513062DD594F869002128F3
:101A6000F6D1B4F8520020B1A068B0F5805F0AD07A
:101A70000BE0086820F0800008602068016841F0F1
:101A80004001016070BD206960B1E06C411CE164FF
:101A900021680078C1F82800B4F85200401EA4F86C
:101AA000520070BDE06C0088C0F308008862E06CF2
:101AB000801CE064F0E74006F3D55006F1D50B68D2
:101AC0002022204623F040030B6084F8692000F0B8
:101AD000EBF870BDA52D000810B5040003D094F8F4
:101AE000690010B107E0012010BD002084F86800F3
:101AF000204600F027F8242084F869002068016857
:101B000021F001010160204601F0A0F90128EBD08D
:101B1000606A10B1204601F0C1F82068416821F4E4
:101B2000904141602068816821F02A01816020682D
:101B3000016841F0010101602046BDE8104001F05C
:101B400011B9000010B5006886B01A4988422ED13C
:101B50001948016841F001010160006800F00100CE
:101B6000059015481430016841F0100101600068CB
:101B70000122124C072300F010000590022004936C
:101B80000102CDE90010CDE9022069462046FEF7AA
:101B9000E3FF2015694600902046FEF7DDFF252073
:101BA000FFF709FB032225201146FFF70FFB06B0C4
:101BB00010BD00000010014030380240000002401B
:101BC00010B590F86A30202B3FD1C9B1C2B190F85E
:101BD0006830012B39D083680124416580F8684062
:101BE000A0F85820A0F85A20B3F5805F4FF0FF010D
:101BF00008D04FF07F0253B1B3F1805F0CD011E0F9
:101C0000012010BD026922B940F2FF1101E0036911
:101C100033B9A0F85C1005E0016909B13F21F8E78C
:101C2000A0F85C2000212222C16680F86A2080F89A
:101C3000681001688A6842F001028A6000680168E1
:101C400041F490710160002010BD022010BD000021
:101C500030B50068114988420CD1114841880A0406
:101C600008D402464FF000034C04127806D50A2A25
:101C700001D0438030BD41F400410DE00D2A09D070
:101C8000084DC1F30D04491C89B2C7292A5541806A
:101C9000EFD830BD41F48041418030BD001001409B
:101CA00014000220FC00022070472DE9F05F8846F6
:101CB000064610274FF0040B01EB88004FF0050A91
:101CC00006EBC005306800EB4814D4F8080540075F
:101CD00008D5C4F808B5D4F80C0540F00200C4F8E3
:101CE0000C0533E0D4F80805800603D52020C4F89D
:101CF00008052BE0D4F808054FF00809000710D5B7
:101D0000D4F80C2542F00202C4F80C2585F85DA039
:101D1000C4F80875C4F808954146306803F0B1FB73
:101D200014E0D4F80805400510D5D4F80C0540F0AF
:101D30000200C4F80C05306803F0A3FB4FF4806187
:101D4000C4F8087585F85D90C4F80815D4F808053E
:101D500080050ED5D4F80C0540F00200C4F80C053F
:101D6000306804F5A164414603F08BFB4FF400702A
:101D70008EE0D4F8080500210122C00737D0306971
:101D800030B1D4F81035A86CC3F31203C01AE8645C
:101D900085F85D20A965C4F8082595F83F0020B1B5
:101DA000022802D003280ED019E0D4F80C0540F028
:101DB0000200C4F80C05306804F5A164414603F044
:101DC00060FB27600BE0D4F8000540F00050C4F839
:101DD00000054146304685F85C20FFF71DF895F870
:101DE000500080F0010085F85000BDE8F09FD4F865
:101DF0000805800735D5D4F80C05022320F0020031
:101E0000C4F80C0595F85D00012808D0052809D014
:101E100006280AD0082808D003281FD015E085F826
:101E20005C2012E085F85CA00FE0A86D421CAA655A
:101E3000032813D9A96585F85CB0D4F8000520F013
:101E4000804040F00040C4F80005C4F80835414621
:101E500095F85C203046FEF7DFFFC6E785F85C307A
:101E6000EBE7D4F80805000614D5D4F80C050621D4
:101E700040F00200C4F80C05A86D04F5A164401CF4
:101E8000A86585F85D104146306803F0FAFA8020B5
:101E90002060AAE7D4F80805C006A6D595F83F004B
:101EA000032803D020B1022802D011E0A96505E083
:101EB000A965306960B9032085F85D00D4F80C0588
:101EC00040F00200C4F80C053068414603F0D9FA2E
:101ED000C4F8087589E72DE9F04702684FF0040857
:101EE00002EB4114D4F80825520709D5C4F8088537
:101EF000D4F80C0540F00200C4F80C05BDE8F087EA
:101F0000D4F8082501EB810500234FF0020C00EB0B
:101F1000C505920615D52022C4F8082595F83D2060
:101F2000012AEBD185F83D3085F85CC0D4F80C254A
:101F300042F00202C4F80C250068BDE8F04703F047
:101F4000A0BAD4F808250126520611D585F85D807F
:101F500085F83D60AB65D4F80C2542F00202C4F868
:101F60000C25006804F5A16403F08BFA402010E012
:101F7000D4F8082592050ED5D4F80C2542F00202BB
:101F8000C4F80C25006804F5A16403F07AFA4FF454
:101F900000702060B2E7D4F80825D2070FD0AB65F7
:101FA000D4F80C2542F00202C4F80C25006804F5B0
:101FB000A16403F066FA266085F85D609EE7D4F8B8
:101FC000082508274FF0050A12070DD5C4F8087533
:101FD000D4F80C2542F00202C4F80C25006803F086
:101FE00050FA85F85DA089E7D4F808254FF010096C
:101FF000D20618D595F83D200327AB6585F85D70AE
:1020000022B995F83C200AB985F83D60D4F80C2532
:1020100042F00202C4F80C25006804F5A16403F044
:1020200030FA4846B5E7D4F8082512060FD5D4F89B
:102030000C2542F00202C4F80C25006804F5A164E6
:1020400003F01FFA062185F85D108020A1E7D4F87F
:102050000825520512D5D4F80C2542F00202C4F826
:102060000C25006804F5A16403F00BFA4FF48061BD
:10207000C4F80090216085F85D703FE7D4F808252A
:10208000920787D5D4F80C2522F00202C4F80C255B
:1020900095F85D20012A0AD0032A15D0042A13D00E
:1020A000052A14D0062A15D0082A13D025E095F861
:1020B0003F2085F85C60022A1FD195F8512082F0FC
:1020C000010285F8512018E085F85CC015E085F81C
:1020D0005CA012E0AA6D561CAE65032A03D9AB655D
:1020E00085F85C8001E085F85CC0D4F8002522F01A
:1020F000804242F00042C4F80025C4F808C595F8B3
:102100005C20FEF789FEF9E67CB504680546D4F844
:1021100040040190D4F8400420F02E000090019873
:1021200080070DD50198C00706D0A06920F00051A6
:10213000A1612846FEF70CFE009840F002000090D6
:102140000198000732D5009840F0080000900198EF
:1021500040071DD5A869022803D0E86803280CD0E1
:102160000FE00198C0F341400228286803D0012104
:1021700003F078FB05E00221FAE74EF66020C4F890
:1021800004042846FEF7A4FF2846FEF7E1FD0DE013
:102190002846FEF799FFD4F8400420F02E00C4F83A
:1021A00040042868816941F00051816101988006EE
:1021B000009802D540F020000090C4F840047CBD97
:1021C0002DE9F04102460068016A064601F00F075A
:1021D000C1F34343022BC1F30A1426D1002C24D0AF
:1021E00007EB870102EBC105696C00291DD022466F
:1021F00003F058FB6A6C06EB47100D4922446A64F1
:10220000EA6C2244EA64D0F810250A420DD0D0F8D6
:10221000001521F0804141F00041C0F8001595F80B
:10222000500080F0010085F85000BDE8F08100000A
:102230000000F81FFEE7000010B5124C002210212C
:102240002046FEF77AFD206820F440602060206878
:1022500040F480602060002220462021FEF76DFDC2
:10226000022004F09FF9012220461021FEF765FDAF
:10227000022004F097F900222046BDE8104010210A
:10228000FEF75BBD001C0240114810B586B0016826
:1022900041F080010160006802220E4C302100F004
:1022A000800005900120CDE90202CDE900106946C9
:1022B0002046FEF751FC012220462021FEF73DFD7D
:1022C000012220461021FEF738FD06B010BD0000A7
:1022D00030380240001C024010B5124C0022102180
:1022E0002046FEF72AFD206820F440602060206828
:1022F00040F480602060012220462021FEF71DFD71
:10230000022004F04FF9012220461021FEF715FDAE
:10231000022004F047F900222046BDE810401021B9
:10232000FEF70BBD001C02402DE9F041174C07469B
:10233000002520682E4620F4406020602068206040
:10234000002210212046FEF7F8FC022004F02AF9B2
:10235000012220461021FEF7F0FC68062021050E20
:102360002046FEF7E5FC08B16D1CEDB2012004F03B
:1023700019F9761CF6B2082EE2D327B1FFF75CFFFD
:102380002846BDE8F081FFF7A7FFF9E7001C0240EF
:1023900070B5194E05463046316821F44061316010
:1023A000316841F48061316000221021FEF7C5FCE4
:1023B0000024280601D5012200E000223046202119
:1023C000FEF7BBFC6806050E022004F0EBF80122C4
:1023D00030461021FEF7B1FC022004F0E3F80022A1
:1023E00030461021FEF7A9FC022004F0DBF8641C43
:1023F000E4B2082CDDD370BD001C024010B5124CB5
:10240000206820F440602060206840F480602060F4
:10241000012220462021FEF790FC012220461021B7
:10242000FEF78BFC042004F0BDF80022204620219A
:10243000FEF783FC042004F0B5F800222046BDE836
:1024400010401021FEF779BC001C024010B5124C60
:10245000206820F440602060206840F480602060A4
:10246000002220461021FEF768FC00222046202191
:10247000FEF763FC042004F095F8012220461021A9
:10248000FEF75BFC012220462021FEF756FCBDE84A
:102490001040042004F086B8001C024070B5174CB0
:1024A0000025206820F44060206020682060012220
:1024B00020212046FEF741FC012004F073F80122A0
:1024C00020461021FEF739FC012004F06BF807E0EC
:1024D0006D1CEDB2FA2D03D9FFF7B8FF012070BDD6
:1024E00020212046FEF724FC0028F1D100222046BE
:1024F0001021FEF722FC002070BD0000001C0240ED
:1025000086B01D4C03200121CDE90210CDE9000168
:1025100069462046FEF720FB002220460321FEF7F5
:102520000CFC4FF47A75284604F020F8012220466E
:102530000321FEF702FC012220461146FEF7FDFBB7
:10254000284604F031F9002220460121FEF7F5FB70
:10255000284604F029F9012220460221FEF7EDFB6E
:10256000284604F021F9002220460221FEF7E5FB6F
:10257000284604F019F9DEE7000402400446094E3B
:10258000E068A168451A09D0A068706841197160B7
:1025900005A003F01FFAA0682844A0600A2003F0F9
:1025A000E5FFEDE7440002205265637620636F7516
:1025B0006E742025640D0A00FEE7704709070028A5
:1025C0004FEA116106DA00F00F0000F1E02080F818
:1025D000141D704700F1E02080F8001470470000DF
:1025E0000148FEF767BC000034020220134810B512
:1025F00086B0016841F002010160006800210122FB
:1026000000F00200059003234FF480508DE80F0086
:102610000B486946FEF7A0FAFFF736FEFFF7EEFE1D
:102620004020FFF7B5FEFFF739FF0446FFF70EFF26
:10263000FF2000F028F806B0204610BD30380240D8
:102640000004024010B5FFF7D9FE4120FFF7A0FEBD
:10265000FFF724FF0020FFF767FE0446FFF7F6FEB2
:10266000204610BD70B50D460446FFF7EBFF012272
:1026700002FA04F22DB10243D0B2BDE8704000F07E
:1026800002B89043F9E710B50446FFF7B7FE4020C3
:10269000FFF77EFEFFF702FF2046FFF779FEFFF708
:1026A000FDFEFFF7D3FEBDE810400A2003F05EBF39
:1026B000F0B5154800270822124E87B04FF0400EA3
:1026C00002210125C0E900671024C0E9025204611B
:1026D0000C038E02CD024FF4C07CC0E90954C0E95E
:1026E00007760623C0E905EC8DE80E00CDE903313D
:1026F000059106916946FFF757F8034800F006F880
:1027000007B0F0BD400100A0E8C202200023012272
:102710001846114610B500F021F84FF4FA7003F096
:1027200041FF002301221846022100F017F8002380
:1027300008221846032100F011F80122042100208C
:102740004FF40C7300F00AF8BDE81040024840F264
:102750003731FFF7B5B80000E8C202201FB54FF0CF
:10276000000410B1012802D002E0102400E0082487
:102770000748CDE902234FF48052CDE900146946A1
:10278000FFF7B0F8002800D0012004B010BD000011
:10279000E8C20220F0B585B0074600260D46344653
:1027A0008DF80C608DF810608879052804D0062813
:1027B00018D0072818D0032429792848022915D0D1
:1027C00027A340F2E62200900420244904F08EF86A
:1027D0006879012811D0022812D0032813D00428C8
:1027E00013D110E00124E7E70224E5E744F00404F4
:1027F00040F2E32220A30090E6E744F0080404E05E
:1028000044F0180401E044F02804286803AA04A94D
:1028100003F00AFE9DF810101DA39DF80C202868F7
:102820008DE807000D49042040F2FD2204F05EF817
:102830009DF80C0044F0C0029DF810309C2140F03F
:102840008000009641EA0221019640EA03223B46BD
:10285000A12003F05FFE05B0C0B2F0BDD27C00083D
:102860002573202D2073746F702062697473203D6E
:1028700020310D0A000000002573202D2073746F95
:10288000702062697473203D20320D0A0000000040
:102890002D2D2D2D2D3E3E3E3E20626175645F72D2
:1028A000617465203D2025642C20666163746F721D
:1028B0003A307825782C2064697669736F723A30E3
:1028C0007825780D0A00000096B000254D494E4845
:1028D0002A4601F04BFA5349EF2204204BA304F09F
:1028E00005F85149484802F0F1FB5049464802F0CA
:1028F000EDFB4C49F52204204DA303F0F7FF4248BD
:1029000002F0BCFC4749FA2204204EA303F0EEFF7C
:102910003D4E6F1E514C12A83A46E16803F056FF37
:10292000DDE912101029F6D1801E0528F3D2DFE868
:1029300000F0060E2A36030006202070EBE7022086
:102940002070314800F040FC0028E4D112E0032060
:1029500020702D4811A900F049FC38B131490420FC
:102960003FA340F2211203F0C1FFD4E79DF84400D9
:10297000072802D00022032101E000220421E068A0
:1029800003F06EFFC7E7D6F87C120420C9692070F7
:102990001D48403100F0D6FC0028BCD107E0D6F835
:1029A0007C020521C069217090F84C0010B1002212
:1029B0000521E4E74FF4007632483146FDF7E4FCA8
:1029C00030493246104800F03EFC2FA02B466D1CCB
:1029D0000090402130A201A803F00CF8064601A89F
:1029E000FDF7DDFC01A90246074800F0BEFCA06827
:1029F0008119A1602AA002F0EDFF0A2003F0D4FEA5
:102A0000E3E7000091520008CC04022055534248ED
:102A10005F496E697420636F6D706C6574650D0A33
:102A2000000000003E7C000824000220D4000220A8
:102A300068555342486F737420636F6D706C657492
:102A4000650D0A00555342485F53746172742073D8
:102A5000746172746564210D0A0000004400022054
:102A60004150504C49434154494F4E5F52454144B7
:102A7000595F434845434B206572726F72210D0ABE
:102A800000000000A407022068656C6C6F20776F5F
:102A9000726C64210D0A000025643A202573000041
:102AA00053656E64282564290D0A000010B504F0F2
:102AB000F9FE012801D004F0B9FCBDE81040FEF792
:102AC0003BBB0000F0B5BFF34F8FBFF36F8F1C4AC5
:102AD00000201A4910600A6842F400320A60BFF30D
:102AE0004F8FBFF36F8F154A70321060BFF34F8F57
:102AF000101F134D43F6FF7410350068C0F34E32BB
:102B0000C0F3C90304EA4216184600BF46EA8077BC
:102B10002F60401EFAD2521EF4D2BFF34F8F0868C6
:102B200040F480300860BFF34F8FBFF36F8F0448CD
:102B30004C30016841F004010160F0BD14ED00E08B
:102B400050EF00E0F0B5294C93B0256845F0805572
:102B50002560246804F080541294254C256845F4BF
:102B60004045256024680DF1200C022504F4404402
:102B7000129401248CE80F0026046846A705CDE9CD
:102B80000046CDE90657FEF771FC044605E02049F2
:102B90003522042017A303F0A9FE002CF7D1FEF77D
:102BA00047FB044605E01A493C22042019A303F020
:102BB0009DFE002CF7D10FAC00214FF4A0524FF432
:102BC000805384E80E000F20CDE90D0507210DA8E4
:102BD000FEF764FB044605E00D494922042014A3D6
:102BE00003F084FE002CF7D113B0F0BD4038024052
:102BF0000070004053797374656D20636C6F636B74
:102C000020736574206572726F72210A00000000E3
:102C1000987B0008456E61626C65204F7665722076
:102C20004472697665206572726F72210A00000035
:102C300052434320636C6F636B207365742065722D
:102C4000726F72210A000000104A30B510481468F3
:102C500000210F4B44F470041460083305680D4ADA
:102C60000D4C45F00105056019600368051D134012
:102C7000074A03600C322C600568E305034C25F419
:102C800080250560803C1160236030BD88ED00E048
:102C900000380240FFFFF6FE1030002490F82410A8
:102CA000C90706D00168836A4A6822F400321A43D1
:102CB0004A6090F82410890706D50168C36A4A68FB
:102CC00022F480321A434A6090F82410490706D54E
:102CD0000168036B4A6822F480221A434A6090F824
:102CE0002410090706D50168436B4A6822F40042A4
:102CF0001A434A6090F82410C90606D50168836B10
:102D00008A6822F480521A438A6090F82410890657
:102D100006D50168C36B8A6822F400521A438A60A0
:102D200090F82410490611D50168036C4A6822F412
:102D300080121A434A60016CB1F5801F06D1016808
:102D4000436C4A6822F4C0021A434A6090F8241087
:102D5000090606D50168826C486820F400201043FB
:102D60004860704738B500250446C566FDF7EAFFA0
:102D700003462068006800070BD56FF07E40009086
:102D8000002220464FF4001100F08CF908B1032016
:102D900038BD202084F8690084F8685084F86A00FF
:102DA000002038BD10B5806B0021A0F85A10A0F8A3
:102DB0005210FEF7CEFD10BD016820220B6823F4EF
:102DC00090730B6001688B6823F001038B6080F8BF
:102DD0006A20704710B590F86A10B0F85C2022297C
:102DE000016805D0886940F008008861022010BDA4
:102DF0008368B3F5805F01D1036973B14B6A416D9C
:102E000013404A1C42650B70B0F85A10491E090461
:102E1000090CA0F85A1008D016E04B6A416D134017
:102E20000B80416D891C4165EEE7016820220B682B
:102E300023F490730B6001688B6823F001038B60AF
:102E400080F86A20FEF704FF002010BD2DE9F0474E
:102E500004468068874B884F2668D4E90415E269E8
:102E60000843D6F800C01021154300222843154618
:102E70000CEA030C814B4CEA000CC6F800C04FF47E
:102E800000492068D4F80CC0466826F4405646EA4B
:102E90000C0646602668D4F82080A069D6F808C0E1
:102EA00040EA08002CF4306C4CEA000CC6F808C06C
:102EB0002068B8420AD11B6813F0030352D0012BDB
:102EC0007AD0022B76D0032B79D177E06C4EB042CA
:102ED0000AD11B6813F00C036AD0042B6CD0082BAA
:102EE00068D00C2B6BD169E0664EB0420AD11B68EA
:102EF00013F030035CD0102B5ED0202B5AD0302B37
:102F00005DD15BE0604EB0420AD11B6813F0C00394
:102F10004ED0402B50D0802B4CD0C02B4FD14DE009
:102F20005A4EB0420DD11B6813F4407340D0B3F534
:102F3000807F41D0B3F5007F3CD0B3F5407F3ED1D8
:102F40003CE0534EB0420FD11B6813F4406309D0EC
:102F5000B3F5806F30D0B3F5006F2BD0B3F5406F71
:102F60002DD12BE001212AE04A4EB0420DD11B6841
:102F700013F440531CD0B3F5805F1DD0B3F5005F50
:102F800018D0B3F5405F1AD118E0434EB04216D1C5
:102F90001B6813F440430BD0B3F5804F0CD04B4566
:102FA00008D0B3F5404F0AD108E005E002E0FFE7A2
:102FB000002104E0022102E0042100E00821E6698A
:102FC0004E452AD109291FD2DFE801F00508141E59
:102FD000171E1E1E1A00FEF7F7F901E0FEF704FAAD
:102FE0000146D4F80400490001EB5001B1FBF0F0B8
:102FF00082B20AE029496068F6E7FEF705FAEFE7D2
:1030000060684FF48031EFE70125216822F00F005E
:10301000C2F342021043C86028E0092925D2DFE844
:1030200001F005080B24102424241C00FEF7CCF921
:1030300009E0FEF7D9F906E06168194A02EB51028E
:103040000EE0FEF7E1F90146D4E9002001EB500162
:10305000B1FBF0F080B2D06008E0616809EB51028A
:10306000B2FBF1F189B2C16000E001252846BDE85C
:10307000F0870000F369FFEF001001409038024034
:103080000044004000480040004C00400050004018
:103090000014014000780040007C00400048E80136
:1030A0000024F4002DE9F041984617460E460446E8
:1030B000069D1DE0681C1BD02DB1FDF743FEA0EB63
:1030C0000800A84214D32168202000220B6823F4B2
:1030D000D0730B6021688B6823F001038B6084F848
:1030E000690084F86A00032084F86820BDE8F08154
:1030F0002068C06936EA000004D00020B842D9D068
:103100000020F3E70120F9E770B50D4D00240D48CC
:10311000FEF726FC02E0641CAC4204D80948FEF726
:1031200019FC2028F7D1002402E0641CAC4206D828
:10313000054901220348FEF743FD0028F5D170BD83
:10314000FFFF0100C40102201400022000224FF6FC
:10315000FF7310B500EB8204B4F88442240409D450
:103160009A4205D000EB820041F40041C0F884127D
:10317000D0B210BD521CD2B20B2AEBD31A46F7E7DD
:103180007FB501AE1C4601250023009586E80E00A0
:1031900002232A46214600F047FF04B0002070BDFC
:1031A0007FB51D4690F81D32089C03B10024012311
:1031B000CDE90031CDE9022402232946002200F0A6
:1031C00033FF04B0002070BD10B50278D0F87C1237
:1031D0000A2AC96908D1012281F84C200022D0F8BE
:1031E000D002042103F03CFB002010BD0378D0F88E
:1031F0007C220A2BD06901D00220704790F8500041
:1032000008700020704710B50278D0F87C120A2AA6
:10321000C96901D0002010BD097B00F05DFE80B2BD
:1032200010BD0378D0F87C220A2BD26904D0007834
:10323000062801D002207047D2E91002C1E900023D
:1032400000207047704770B5D0F87C320124DB69EC
:1032500093F84C500DB1042D0ED19A6204241962DA
:10326000032583F84C40002483F84E500421D0F805
:10327000D002224603F0F4FA204670BD2DE9F04159
:10328000284C0746284DE0682168C0F313000E184B
:103290003846FFF7B8FFE168A268891A0844B0F51C
:1032A000801F07D3BDE8F041B522244904201FA3A5
:1032B00003F01CBB3846FFF7A6FFE168C1F313011A
:1032C0000844A84211D9E0681D49C0F31300C0F5B5
:1032D000801530462A46FDF73EF83846FFF793FF43
:1032E0001749421B2068294405E03846FFF78BFF49
:1032F000134902463046FDF72EF83846FFF783FFA4
:10330000E1684FF400750844E0600D482946FDF778
:103310003BF82A460A49BDE8F041A1F53670FFF7AF
:1033200092BF0000A8090220FFFF0F0062756666C9
:1033300065722066756C6C0D0A000000257C000823
:10334000A407022010B50378D0F87C220A2BD2699A
:1033500009D1022382F84C3091640022D0F8D002C7
:10336000042103F07DFA002010BD70B5D0F87C3246
:103370000124DB6993F84C500DB1042D0ED15A6233
:103380000424D961012583F84C40002483F84D5072
:103390000421D0F8D002224603F062FA204670BD24
:1033A000704710B5D0F87C124FF4E13300240822A6
:1033B000C9690B6481F8444081F8454081F8462092
:1033C0000221D0F8CC229047204610BD70B50546AA
:1033D000D0F87C020026C469217839B1284600F073
:1033E00027F92178284600F0D0F92670217B39B1E1
:1033F000284600F01DF9217B284600F0C6F9267307
:10340000617B39B1284600F013F9617B284600F052
:10341000BCF96673D5F87C02C06920B103F0E6F808
:10342000D5F87C02C661002070BDFEB502240546B9
:1034300001222346FF2100F086F9FF2806467ED0B0
:103440000146284601F084FE542003F077F906EB8C
:103450008602D5F87C1202EBC602044605EB420652
:10346000C86196F85A02010603D56070B6F85C028E
:10347000608128466178FFF769FE20700146638904
:10348000032295F81D028DE80D0095F81C322846A0
:10349000627801F0DDFB21780022284600F0A4FDCF
:1034A00096F84A02010604D5E073B6F84C02608330
:1034B00003E0A073B6F84C02208396F8520201068E
:1034C00004D5E073B6F85402608303E0A073B6F845
:1034D000540220832846A17BFFF738FE60732846FC
:1034E000E17BFFF733FE20730226218B95F81D0246
:1034F000CDE900060291284695F81C32A27B617B3B
:1035000001F0A6FB608B95F81D120091CDE90160DA
:1035100095F81C322846E27B217B01F099FB0020C4
:1035200084F84C0084F850000246617B284600F085
:103530005BFD217B0022284600F056FD00E000E004
:1035400000242046FEBD0000F8B50746D0F87C02F6
:10355000354901262DA340F22F22C46994F84C006E
:103560000090022003F0C2F994F84C0000250628D0
:1035700049D2DFE800F0030509163A41002642E08F
:10358000384602F0CBFE3BE0A16C3846FFF702F96B
:1035900028B1012837D0052084F84C0033E00320FF
:1035A000FAE7D7F87C1204F14000C9698A6CD2E9C5
:1035B0000012C0E9001284F84C50A06C94F844103A
:1035C000027991421FD194F84610827991421AD122
:1035D00094F845104279914215D1216C00688142DE
:1035E00011D13846FFF72EFE0DE03846FDF78FF972
:1035F0003846FDF74BF906E00021384600F01DF88B
:1036000008B984F84C503046F8BD00004344435F8D
:1036100048616E646C652D3E73746174653A202553
:1036200064210D0A00000000BF7C000800207047E4
:1036300010B500F0E7FB002010BD30B48278012AFD
:1036400007D1002202240474012343744282818240
:10365000C282002230BC114600F010B87FB501AE26
:103660001C4601250023009586E80E002A462146C7
:1036700000F0DAFC04B0002070BD00002DE9F84332
:10368000044680780125904616A30F461A4940F259
:1036900019220090002003F029F9A07801260128C2
:1036A00002D002281AD10CE0A7600221A4F80C80F5
:1036B00000222676A1700321D4F8D00203F0D0F8BE
:1036C0000CE0204600F012F9050002D0022D04D0D3
:1036D00004E0A6700020207600E0A6702846BDE831
:1036E000F883000052657175657374537461746575
:1036F000203A25640D0A0000E57B00087FB51D46D1
:1037000090F81D32089C03B100240123CDE900315B
:1037100000232946CDE902241A4600F085FC04B0B6
:10372000002070BD1FB5002314460822CDE90031EA
:10373000CDE902231A46214600F076FC04B00020B1
:1037400010BD03F031B870B5002400F50D7004EB26
:10375000840505EBC40500EB4505EE7B0A358E427A
:1037600001D0FF2909D1AE79964201D0FF2A04D1B8
:10377000ED799D4207D0FF2B05D0641C64B2022C6A
:10378000E5DBFF2070BDE0B270BD0B2907D200EB76
:103790008100B0F88412C1F30E01C0F88412002039
:1037A0007047F0B48578049C012D0FD141F080065C
:1037B00006740625428203214574B1EB122F02D113
:1037C00040F2094100E000218182C4822246F0BC1F
:1037D0001946FFF753BF0A8803781A440A80017814
:1037E00008447047F8B500F11C050E464FF400720E
:1037F00004462B4600910021FFF7D3FF070005D1B7
:1038000004F50D703246294601F02CFA3846F8BD11
:1038100038B500F11C030D464FF480720446009148
:103820000021FFF7BEFF010039D104F22220227FE0
:10383000082D0270627F4270E37FA27F02EB0322B9
:10384000428094F82020027194F82120427194F86B
:103850002220827194F82320C27120D994F8253057
:1038600094F8242002EB0322028194F8273094F884
:10387000262002EB0322428194F8293094F8282074
:1038800002EB0322828194F82A20827394F82B2081
:10389000C27394F82C20027494F82D2042740846C8
:1038A00038BDF8B51C46164641F44072009300F14D
:1038B0001C0300211D46FFF774FF002814D169780E
:1038C000032911D129788A1EA24200DC1446002166
:1038D000A2B2AD1C04E06B5C891C89B206F8013B06
:1038E0009142F8D300213170F8BD00002DE9F84F66
:1038F0000446007E6B49012565A3009000204FF42B
:10390000137202F0F3FF207E01270B264FF0090807
:103910000C284FF007094FF0050B4FF00D0A36D277
:10392000DFE800F0B3060E2A36404B5E6A7F8B96C6
:10393000627904F110012046FFF7F4FE022025E031
:103940006179204600F0EEFA01287ED1207CE18AE0
:1039500000F0800031B1802801D103203CE084F8E0
:1039600018B057E0802802D184F8188052E084F81B
:1039700018904FE026764DE0D4F8C002E081204652
:103980002379A289A168FFF769FE042020767CE0F4
:103990002179204600F0C6FA0128E5D0052854D147
:1039A000032537E0009720466379A289A168FFF7D5
:1039B000A5FED4F8C00206211BE06179204600F084
:1039C000B1FA0128D3D0052804D00228C7D0042892
:1039D00004D05AE00C20032520761BE00225C9E71D
:1039E0000022237911462046FFF738FED4F8C002A2
:1039F00008212176E08148E02179204600F092FA02
:103A0000012804D00428B5D00528C9D03DE0002500
:103A100084F818A0D4F8D0020022032102F020FF7D
:103A200033E000220097637911462046FFF766FED7
:103A3000D4F8C0020A21DCE707E06179204600F0F3
:103A400071FA0128E3D002288ED0042892D01CE01D
:103A5000607E401CC0B26076022805D8204600F087
:103A6000DCFA2776A77010E0D4F8CC220621204695
:103A70009047002060760CA001F0ACFF0CA001F094
:103A8000A9FF0FA001F0A6FF02252846BDE8F88F88
:103A9000436F6E74726F6C2E7374617465203A2577
:103AA000640D0A00F17B00084552524F523A200043
:103AB000436F6E74726F6C206572726F72000000DB
:103AC0000D0A00002DE9FE430446407875490126A1
:103AD00070A340F26E220090002002F007FF617890
:103AE00000250127082904F11C0812D2DFE801F0A3
:103AF00004294170788298B008212046FFF788FE9B
:103B000040B1684968A340F28F220090002002F083
:103B1000EDFEBCE094F81D12802294F82902A071F9
:103B200067700091CDE9015094F81C32204621794C
:103B300001F08EF8A17994F81D02CDE900050291FB
:103B40003EE012212046FFF763FE0028E1D1B4F8E1
:103B50002C125DA001F03EFF5EA001F03BFFB4F827
:103B60002A125DA001F036FF5AA001F033FF0220B7
:103B70003EE00121204601F065FB0028C9D102206A
:103B8000FFF7DFFD57A0394684F81C7201F022FFD1
:103B900050A001F01FFFA079032294F81D1262705B
:103BA00080220091CDE9015094F81C322046217901
:103BB00001F04EF8A07994F81D120091CDE9015062
:103BC00094F81C3200226179204601F041F85EE051
:103BD00009212046FFF706FE002858D1042007E0FF
:103BE000B4F836122046FFF7FDFD00284FD105201E
:103BF00060704CE094F83012062579B1FF234246FC
:103C00002046FFF74EFE002841D13CA0414601F07E
:103C1000E1FE30A001F0DEFE657032E03CA014E071
:103C200094F83112072579B1FF2342462046FFF769
:103C300038FE00282BD13BA0414601F0CBFE25A049
:103C400001F0C8FE657022E03AA001F0C3FEE0E793
:103C500094F8321271B1FF2342462046FFF721FE4D
:103C6000A8B938A0414601F0B5FE1AA001F0B2FE95
:103C700000260CE038A001F0ADFE16A001F0AAFE6F
:103C80000026D4F8D0020022052102F0E9FD3046DA
:103C9000BDE8FE83456E756D53746174653A2025E9
:103CA000640D0A00D57B0008555342485F47657490
:103CB0005F44657644657363206661696C6564285A
:103CC0002564290D0A0000005049443A20257868EF
:103CD000000000000D0A00005649443A202578688B
:103CE000000000004164647265737320282325641A
:103CF000292061737369676E65642E004D616E756E
:103D00006661637475726572203A20257300000045
:103D10004D616E756661637475726572203A204EEE
:103D20002F41000050726F64756374203A20257330
:103D30000000000050726F64756374203A204E2FAB
:103D40004100000053657269616C204E756D6265BB
:103D500072203A202573000053657269616C204E11
:103D6000756D626572203A204E2F410030B5040017
:103D70000D4687B029D084F8C4220020C4F87C0204
:103D8000C4F880022046FCF703FE0DB1C4F8CC5203
:103D90001349D1E90001CDE90501002105A802F090
:103DA0000FFD0F491422C4F8D00268460831FCF711
:103DB000D2FA2146684602F081FDC4F8D4022046BA
:103DC00000F0C4F8002007B030BD06A001F002FEEC
:103DD00006A001F0FFFD0AA001F0FCFD0220F2E7C1
:103DE000AC7B00084552524F523A2000496E766132
:103DF0006C696420486F73742068616E646C650040
:103E00000D0A000010B5D0F8C802FCF7BCFF002076
:103E100010BD10B50446007818B1207801280AD0EA
:103E20000BE0D4F8CC22012084F81E022AB1042130
:103E30002046904701E002202070D4F8D0020022F2
:103E4000012102F00DFD002010BD000010B5044658
:103E500000F0E3F821792046FFF797FC61792046CE
:103E6000FFF793FCD4F8CC22002084F81E0212B194
:103E700005212046904709A001F0ACFD0DA001F0FE
:103E8000A9FD204600F0C2F803202070D4F8D0022B
:103E90000022012102F0E4FC002010BD5553422015
:103EA00044657669636520646973636F6E6E6563EC
:103EB000746564000D0A0000064810B541B1012286
:103EC0004021FCF73AFFC820FCF734FE002010BD6B
:103ED0000022F5E700180240D0F8C802FCF74DBFF9
:103EE00010B5D0F8C8020124FCF73DFF20B101282D
:103EF00005D0022803D101E0002400E0022420467E
:103F000010BD0000064801EB810100EBC10090F8F4
:103F10003B1011B190F85000704790F85100704775
:103F200034020220D0F8C802FCF720BFD0F8C0123B
:103F3000491CC0F8C01201780A2905D1D0F87C12BA
:103F4000002901D089690847704700002DE9F04138
:103F50000446104800214FF0A047022207600123C9
:103F60008261032501610B26C0E90731C162C0F8F7
:103F700094424162C0E90265C4F8C802FDF731F815
:103F80000448FCF7EDFE0146204600F029F8002029
:103F9000BDE8F0813402022010B5D0F8D002002232
:103FA000022102F05DFC002010BDFEB508AF97E8CD
:103FB00070008DE87000D0F8C802FCF7F6FE002013
:103FC000FEBD002180F81F127047012180F81F12EA
:103FD000704710B5D0F8C802FDF77EF8002010BD7C
:103FE000C0F8C01270470000074801EB810100EBE8
:103FF000C10090F83B1011B180F8502001E080F82A
:1040000051200020704700003402022010B5D0F883
:10401000C802FDF768F8002010BD10B5D0F8C8023E
:10402000FDF777F8002010BD2DE9FF410DF12808BC
:1040300098E8F0008DE8F000D0F8C802FCF7F0FE38
:1040400004B00020BDE8F0810346D0F87C02C169CD
:104050004FF002002AB1012A05D189791846FFF7ED
:10406000ECBAC979FAE77047D0F87C020121064B17
:10407000044AC069C0E9152380F8501080F8521036
:104080000020704755534243504030202DE9F84FEF
:104090000546D0F87C0201264FF00B0A37464FF058
:1040A0000A0B4FF009094FF00708C46994F8500053
:1040B0000C2814D2DFE800F0E40614313A5561838D
:1040C0008CB7BFDD84F86110022084F850001F22F5
:1040D000009604F1540163792846FFF761F8CFE0B8
:1040E00061792846FFF71EFF012802D002280DD073
:1040F0004BE0E06D38B194F8600000065DD5032018
:1041000084F8500086E084F8508083E084F85060A2
:1041100080E000BF84F850B07CE0237928466289B3
:10412000D4F88C10FFF72CF8042023E021792846DE
:10413000FFF7F8FE012851D16289E06D904239D92C
:10414000D4F88C10801A1144C4F88C10E065DAD0D1
:1041500023792846FFF714F892E000BF84F85090C6
:1041600058E00096284663792289D4F88C10FFF72E
:1041700017F8062084F8500082E061792846FFF79E
:10418000D1FE012804D0022817D00528C2D077E03C
:104190002289E06D90420DD9D4F88C10801A114418
:1041A000C4F88C10E065AED0009628466379FEF71F
:1041B000F7FF2FE00020E065A5E70520A0E72379C1
:1041C0000D2204F178012846FEF7DAFF0820D1E736
:1041D00021792846FFF7A6FE012802D00528BDD088
:1041E0004EE084F85060284684F85260D5F87C127E
:1041F000CC692179FFF770FE0D280AD12249A06F02
:10420000884206D1A16DE06F884202D194F8840003
:1042100038B10227D5F8D0020022022102F020FB9B
:104220002EE00027F6E700222846FFF70DFF38B9F9
:1042300084F8508024E001222846FFF705FF10B1E2
:10424000042813D01CE061792846FFF75BFEC0F11B
:1042500001006179C2B22846FFF7C6FE217900222B
:104260002846FFF7C1FE84F8509009E084F850A07A
:1042700006E0284600F018F8070001D184F85060E5
:104280003846BDE8F88F00005553425330B4A1259D
:104290000574FE24447400220123C3824282828278
:1042A0001A4630BCFFF7EAB9212303740021FF222C
:1042B000427441820A468182C182FFF7DFB9000061
:1042C00070B5D0F87C120125CC69A17B21B10229FF
:1042D00002D003292ED127E02146FFF7D7FF03287C
:1042E00005464FF0000601D015B123E000252660F9
:1042F000217811A0491C216001F06CFB16A001F08F
:1043000069FB002002220BE000EB800101EBC00101
:10431000401C04EB8101C0B281F8922081F8C16099
:1043200021688142F0D805E00021FFF786F908B93D
:10433000E07BA073284670BD4E756D626572206F7C
:104340006620737570706F72746564204C554E3AB8
:1043500020256C75000000000D0A000070B50546B0
:10436000D0F87C020026C469617939B12846FFF78C
:104370005FF961792846FFF708FA6671217939B14A
:104380002846FFF755F921792846FFF7FEF92671EF
:10439000D5F87C02C06920B102F028F9D5F87C027A
:1043A000C661002070BDFEB50546D0F87C0202242F
:1043B0005023062201792846FFF7C5F9FF28014658
:1043C0007DD0284600F0C4FEE00102F0B7F9D5F830
:1043D0007C120446C86195F8200200EB800101EBD5
:1043E000C00005EB400090F84A0201060CD5E071D0
:1043F00095F8200200EB800101EBC00005EB4000C6
:10440000B0F84C0260810BE0A07195F8200200EB3F
:10441000800101EBC00005EB4000B0F84C022081A8
:1044200095F8200200EB800101EBC00005EB400095
:1044300090F8520201060CD5E07195F8200200EBCD
:10444000800101EBC00005EB4000B0F85402608130
:104450000BE0A07195F8200200EB800101EBC00099
:1044600005EB4000B0F8540220810020A4F8F800C9
:10447000A4F8FA0020736073A0732846A179FEF7B0
:1044800065FE60712846E179FEF760FE20712846DE
:10449000FFF7EAFD682104F19000FBF775FF208922
:1044A000022695F81D120091CDE9016095F81C32A5
:1044B0002846A279617900F0CBFB618900E016E023
:1044C00095F81D02CDE900060291284695F81C32A8
:1044D000E279217900F0BCFB217900222846FFF720
:1044E00083FD617900222846FFF77EFD00242046E7
:1044F000FEBD00002DE9F0470646D0F87C024FF0E3
:10450000010AC469207B10B101287CD1F8E1B4F81C
:10451000F800012521684FF00008884274D200EBB2
:1045200080014FF0050901EBC000022704EB800079
:1045300080F89150B4F8F81001EB810000EBC10055
:1045400004EB800292F8900009286ED2DFE800F0B8
:10455000056D65DB1AF66D6DF500ECA001F03AFA19
:10456000EDA001F037FAB4F8F810042001EB810255
:1045700002EBC10104EB810181F89000D6F8C00282
:10458000C4F8FC00B4F8F800C1B200EB800202EB02
:10459000C00004EB800230469F3200F045FA00284C
:1045A00038D1B4F8F80000EB800101EBC00004EB57
:1045B0008001A231D9A001F00DFAD7A001F00AFACA
:1045C000B4F8F80000EB800101EBC00004EB8001BF
:1045D000AB31D8A001F0FEF9CFA001F0FBF9B4F89F
:1045E000F80000EB800101EBC00004EB8001BC315E
:1045F000D6A001F0EFF9C8A001F0ECF9B4F8F8008A
:1046000000EB800101E07DE16BE101EBC00004EB18
:104610008000FCE0022875D0DFE03046C9B200F02F
:10462000EEFA18B1022837D0D7E053E1B4F8F80019
:1046300000EB800101EBC00004EB800090F89210C9
:1046400041B180F8C150C7A001F0C4F9B2A001F097
:10465000C1F901E080F8C1800321B4F8F82002EB31
:10466000820303EBC20204EB820282F89010B4F8DA
:10467000F81001EB810202EBC10104EB810181F82A
:104680009180B4F8F81001EB810202EBC10104EB58
:10469000810181F892801DE1B4F8F80000EB8001FF
:1046A00001EBC00004EB800090F89210022908D0C2
:1046B00080F8C150B0A001F08DF997A001F08AF9FF
:1046C00001E080F8C180B4F8F81001EB810202EB40
:1046D000C10104EB810181F89090B4F8F80000EB7F
:1046E000800101EBC00004EB800080F89150B4F829
:1046F000F80000EB800101EBC00004EB800080F8C3
:104700009270E7E056E094323046C9B200F0EFF91B
:1047100000287FF47FAFB4F8F80000EB800101EBD4
:10472000C00004EB800090F8C11001292DD1D0F811
:104730009410B0F89800414301E0C8E045E094A02F
:1047400001F048F974A001F045F9B4F8F80000EB65
:10475000800101EBC00004EB8000D0F8941094A01D
:1047600001F038F96CA001F035F9B4F8F80000EB6D
:10477000800101EBC00004EB8000B0F8981091A01C
:1047800001F028F964A001F025F9B4F8F81001EB64
:10479000810202EBC10104EB810181F89050B4F871
:1047A000F81001EB810202EBC10104EB810181F8F9
:1047B00091805FE0B4F8F81001EB810202EBC101D7
:1047C00004EB810181F8909084E09C323046C9B2BC
:1047D00000F0CAF920B1022852D0042862D079E052
:1047E000B4F8F80000EB800101EBC00004EB80009E
:1047F00090F89C10062901D002290BD1D6F8C022CE
:1048000042F2107CD4F8FC30D21A624502D280F811
:1048100090705FE070A001F0DDF83FA001F0DAF8E1
:10482000B4F8F80000EB800101EBC00004EB80005D
:1048300090F89D106CA001F0CDF837A001F0CAF8F7
:10484000B4F8F80000EB800101EBC00004EB80003D
:1048500090F89E106BA001F0BDF82FA001F0BAF8FF
:10486000B4F8F80000EB800101EBC00004EB80001D
:1048700080F89050B4F8F800401CA4F8F80029E043
:104880003DA001F0A7F824A001F0A4F8B4F8F810B6
:10489000082001EB810202EBC10104EB810181F8E8
:1048A000900017E0B4F8F80000EB800101EBC000C5
:1048B00004EB800080F89050B4F8F80000EB800121
:1048C00001EBC00004EB800080F8917002E0491C0D
:1048D000A4F8F810D6F8D0020022042101F0C0FF9D
:1048E00010E0A4F8F880002225730421D6F8D00245
:1048F00001F0B6FFD6F8CC2202213046904701E005
:104900004FF0000A5046BDE8F08700004C554E209D
:104910002325643A200000000D0A0000496E7175DD
:104920006972792056656E646F7220203A20257373
:1049300000000000496E71756972792050726F64D1
:10494000756374203A20257300000000496E71756C
:104950006972792056657273696F6E203A202573EB
:10496000000000004D534320446576696365207262
:1049700065616479000000004D5343204465766909
:104980006365204E4F542072656164790000000019
:104990004D534320446576696365206361706163AC
:1049A000697479203A20256C75204279746573000A
:1049B000426C6F636B206E756D626572203A2025C4
:1049C0006C750000426C6F636B2053697A65202020
:1049D000203A20256C75000053656E7365204B6589
:1049E0007920203A202578004164646974696F6EEB
:1049F000616C2053656E736520436F6465203A20B7
:104A0000257800004164646974696F6E616C20539D
:104A1000656E736520436F6465205175616C6966CE
:104A20006965723A202578002DE9F0411646D0F8E4
:104A30007C220225D46994F85220012A02D0022A4D
:104A400052D129E04B014FF0020C2421E165802571
:104A500084F860500A2284F862200020C4F86300C1
:104A6000C4F867001226A4F86B00012784F863607D
:104A700004F1100284F864303D4684F8650084F83F
:104A8000660084F8671084F8680084F8507084F831
:104A900052C0C4F88C2027E0FFF7F8FA050023D1B4
:104AA00022213046FBF770FC54F88C0F102200785E
:104AB00000F01F0070702068007840093070206896
:104AC0004078C009B07020688168C6F80310C068DB
:104AD000C6F8070006F10C0021681031FBF73BFC1B
:104AE0002068006AC6F81D002846BDE8F08170B550
:104AF0001646D0F87C220125D46994F85220012A68
:104B000002D0022A2ED11AE00822E265802184F820
:104B100060100A2084F86200102104F16300FBF7A2
:104B200033FC252384F86330012284F850200221CD
:104B300084F8521004F11000C4F88C0012E0FFF762
:104B4000A5FA05000ED154F88C0F428841780378FD
:104B500050BA61F31F4040EA036030602068C088AB
:104B600040BAB080284670BD2DE9F0411546024696
:104B7000D0F87C020E46C469022094F85210012934
:104B800015D0022911D131461046FFF77FFA0028CF
:104B90000BD154F88C1F897801F00F01297021681E
:104BA000097B69702168497BA970BDE8F0810E25F9
:104BB000E565802184F860100A2084F862001021E5
:104BC00004F16300FBF7E0FB032284F8632071012A
:104BD00084F86410002084F8650084F866000123DE
:104BE00084F86750022684F8680004F1100784F8FE
:104BF0005030184684F85260C4F88C70D5E770B510
:104C00000246D0F87C02C469022094F85230012B8D
:104C100006D0022B19D1BDE870401046FFF736BA16
:104C20000025E5650A2084F86200102184F86050B0
:104C300004F16300FBF7A8FB012284F8635084F8B9
:104C400050200221104684F8521070BD0020704799
:104C5000FEB508AF97E870008DE87000FFF7A5F982
:104C60000020FEBD2DE9F84105460B78092A0846CB
:104C70004FF000072B704A786A70CB788A7802EB85
:104C800003226A800A792A714A796A718A79AA713B
:104C9000CA79EA71017A297257D90921ADF8001051
:104CA0004EE06946FEF797FD4178042946D107EBAF
:104CB000870101EBC701002605EB4108017808F1E7
:104CC0000A0488F80A10417888F80B10817888F86F
:104CD0000C10C17888F80D10017988F80E10417910
:104CE00088F80F10817988F81010C17988F81110B0
:104CF000017A217218E06946FEF76DFD41780529B9
:104D000012D108EBC6010278761C76B20A75427899
:104D10004A7582788A75C278CA754379027902EB3E
:104D200003220A8382798A762179B14204DD6A8876
:104D3000BDF800108A42DED87F1C7FB2022F04DA51
:104D40006988BDF800209142ABD8BDE8F881000029
:104D50002DE9FE43044602208DF80000207800254E
:104D6000884984A34FF4C8720090284601F0BEFD24
:104D7000207800260C274FF008080B286FD2DFE8B8
:104D800000F006F517EAF553CD6F7989E30094F842
:104D90001E02002863D001202070C820FEF7D1FC3D
:104DA0002046FFF716F90022D4F8D0020121AFE027
:104DB00075A000F00FFE79A000F00CFE6420FEF755
:104DC000C0FC2046FFF78CF8014684F81D0274A051
:104DD00000F000FE71A000F0FDFD05202070002114
:104DE0002046FEF7B3F9802160712046FEF7AEF948
:104DF000A379014694F81D2220712046009280225A
:104E0000CDE9016394F81C32FFF722FFA17900225B
:104E100094F81D02CDE900060291204694F81C3258
:104E20006179FFF715FFBEE72046FEF74BFE00282D
:104E300015D15FA000F0CEFD58A000F0CBFD94F896
:104E4000330284F82062012801D0072072E05DA0BF
:104E500000F0C0FD51A000F0BDFD40466AE085E0D5
:104E6000D4F8CC22002A95D001212046904784F81E
:104E7000008049E094F83912204600F0F1F900284A
:104E800074D10920207059A000F0A4FD43A000F0C7
:104E9000A1FD6BE0D4F8800220B394F84312C4F86B
:104EA0007C6200BF04EB8500D0F8740202798A426C
:104EB00001D1C4F87C026D1CEDB2022DF2D3D4F8FE
:104EC0007C02002827D081682046884760B127707F
:104ED000D4F87C0201684CA000F07CFD2FA000F00B
:104EE00079FD11E050A02CE006202070D4F87C025F
:104EF000016855A000F06EFD28A000F06BFDD4F80D
:104F0000CC22032120469047D4F8D002002205216C
:104F100001F0A6FC2AE0277050A0DDE7D4F87C025F
:104F200050B10169204688478DF800009DF80000C7
:104F3000E0B90A20207019E0277053A000F04AFD64
:104F400053A000F047FDC9E7D4F87C0270B1416975
:104F5000204688470AE02046FBF71AFDD4F87C0279
:104F600020B1C16820468847C4F87C620020BDE8B3
:104F7000FE8300006753746174653A2025640D0A4E
:104F800000000000C87B0008555342204465766944
:104F90006365204174746163686564000D0A0000F4
:104FA0005553422053706565643A20256400000023
:104FB000456E756D65726174696F6E20646F6E65A4
:104FC0002E0000005468697320646576696365206B
:104FD000686173206F6E6C79203120636F6E666933
:104FE0006775726174696F6E2E00000044656661BA
:104FF000756C7420636F6E66696775726174696F32
:105000006E207365742E0000446576696365206EBA
:105010006F7420737570706F7274696E672025737A
:1050200020636C6173732E004E6F20436C61737349
:1050300020686173206265656E20726567697374AC
:10504000657265642E000000257320636C617373C4
:1050500020737461727465642E0000004E6F2072BC
:1050600065676973746572656420636C617373202E
:10507000666F722074686973206465766963652859
:105080002564292E000000004552524F523A20005C
:10509000496E76616C696420436C6173732044725D
:1050A000697665722E0000000EB504464FF0FF359C
:1050B0002A466846D4F8D01201F088FB00981028E0
:1050C000F6D12046FFF744FEF2E7000002464FF01B
:1050D000000010B5B9B1D2F88032022B07D25C1CA7
:1050E000C2F8804202EB8303C3F8741210BD08A01B
:1050F00000F070FC08A000BF00F06CFC0DA000F0F8
:1051000069FC022010BD02A000F064FC0AA0F3E7D5
:105110004552524F523A20004D617820436C6173E2
:1051200073204E756D626572207265616368656497
:10513000000000000D0A0000496E76616C69642071
:10514000436C6173732068616E646C6500000000DD
:1051500070B5054690F8380200260C46A04227D9C3
:1051600019A0214685F8204200F034FC1EA000F072
:1051700031FC04EB840000EBC40005EB40041BA0F1
:1051800094F8431204F2432400F024FC16A000F02B
:1051900021FC617819A000F01DFC13A000F01AFC9E
:1051A000A1781AA000F016FC0FA000F013FC09E093
:1051B0001AA000F00FFC1BA000F00CFC0AA000F0ED
:1051C00009FC0226304670BD537769746368696EC6
:1051D0006720746F20496E7465726661636520286C
:1051E00023256429000000000D0A0000436C617350
:1051F00073202020203A20257868000053756243F0
:105200006C617373203A20257868000050726F74C7
:105210006F636F6C203A2025786800004552524F2A
:10522000523A200043616E6E6F742053656C656363
:1052300074205468697320496E7465726661636591
:105240002E0000008278012A06D100220274052374
:10525000437441828282C28200221146FEF70EBA56
:105260008278012A06D10022027409234374418204
:105270008282C28200221146FEF700BA10B50446AF
:10528000FEF7C4FE01212046FEF716FE002010BDE9
:105290001CB5D0F87C020129C06922D0114C02292A
:1052A00008D020460429C06814D0052919D100224D
:1052B000062111E0D0E9101078220BA3CDE90010EF
:1052C0001249042001F012FBFBF712FC0022E068F7
:1052D000022101E00022012102B0BDE8104001F0EE
:1052E000BFBA1CBD440002204445425547203A2025
:1052F0006765742064656675616C742062616E64B4
:10530000726174653A202564210D0A00147C00083E
:1053100070B504460699049D0D9801290CD0E068EB
:1053200040F04000E060204600F02AF84FF4803062
:10533000A063012D17D01EE0A26B01280F4922F4B3
:105340008030A063E06800EA0100E060E06820F4DB
:105350004010E06003D1E06840F48010E060204637
:1053600000F00EF8E5E7A06840F00600A060A06835
:1053700040F02000A060002070BD0000BFFFBDFF16
:105380000C49012202E0521C8A420BD80369002B0F
:10539000F9DA0369012243F00103036104E0521CBE
:1053A0008A4201D9032070470369DB07F7D1002047
:1053B00070470000400D0300816821F00101816009
:1053C0000020704700EB4110064AC0F81025D0F8C5
:1053D000001521F0804141F00041C0F80015002087
:1053E000704700000000088008B5D0F8402422F083
:1053F0002E020092D20405D4012909D1009941F46A
:10540000805103E021B9009921F48051C0F8401483
:10541000002008BD816841F00101816000207047D3
:10542000064A102101610021491C914201D9032043
:1054300070470369DB06F7D400207047400D030076
:105440002023074A43EA811303610021491C91424A
:1054500001D90320704703699B06F7D400207047E9
:10546000400D0300D0F8080480B2704708B5D0F8AA
:1054700040040090C0F3414008BD406900F00100C5
:10548000704700EB41114FF47A72D1F8003513F4F4
:10549000402F11D0D1F80035C3F38143022B0BD03C
:1054A000D1F8003543F08043C1F80035D0F810043E
:1054B0000004000C2ED009E0D1F8003543F0804301
:1054C000C1F80035C06A0004000C07D0D1F800050F
:1054D00040F00040C1F8000500207047D1F80035C9
:1054E000012023F00043C1F80035D1F8003543F026
:1054F0000043C1F80035D1F8003523F40043C1F86A
:10550000003502E0401C9042E6D8D1F80035002B6F
:10551000F8DBE1E7D1F80035012023F00043C1F8C2
:105520000035D1F8003543F00043C1F80035D1F81B
:10553000003523F40043C1F8003502E0401C9042DE
:10554000CAD8D1F80035002BF8DBC5E72DE9F043C8
:1055500000EB41144FF0FF36DDE90859DDF81CC0BF
:10556000C4F8086535B1012D1ED0022D02D0032DDF
:1055700026D112E0170640F29D46C4F80C6504D50A
:10558000D4F80C6546F4807618E0B0F1A04F17D03F
:10559000D4F80C6546F0600610E0170640F29D66F0
:1055A000C4F80C65ECD40BE0170640F22526C4F8CD
:1055B0000C6505D5D4F80C6546F4C076C4F80C65C6
:1055C000D0F8186401274FF0FE588F403E43C0F8D2
:1055D00018644FF4F04108EA8353866901EAC22750
:1055E0004FF400413B4301EA0222BCF1020F46F0B6
:1055F0000071816143EA020310D000204FF4402182
:1056000001EA854243EA40401043C9F30A01032DF1
:1056100040EA0100C4F8000502D007E00120EDE7F0
:10562000D4F8000540F00050C4F800050020BDE8A3
:10563000F083D0F8140480B270470000F8B5B0F1E0
:10564000A04F4FF000064FF4807516D00B79A3B928
:105650004B7812B1012A07D00FE04C79012C0CD104
:105660001946FFF7AFFE97E000EB4313D3F80C4564
:1056700024F06004C3F80C454E710B695BB10C89D2
:1056800023445B1EB3FBF4F39BB2AB4204D9240268
:105690002B460C6100E00123CC7814B10C895C43EB
:1056A0000C616FF0604E4C780EEAC34ED1F810C01A
:1056B0004FF0C0478D7A00EB4414CCF3120307EA95
:1056C000457543EA0E032B43C4F810352AB14C78D4
:1056D000CB6800EB4414C4F814354D78D0F8084476
:1056E0002E4B00EB4515D5F8007544F3000427F068
:1056F0000057C5F800754D7800EB4515D5F80075D5
:10570000641C47EA4474C5F800454C7800EB441427
:10571000D4F800555D605D6825F080455D60CD780A
:10572000002D5D6802D045F4004501E025F40045F8
:105730005D605D6845F000455D605B68C4F80035FC
:1057400052BBCA7842BB0A6932B3CB7933B1012B61
:105750000FD0022B02D0032B17D10AE0C36AD21C50
:105760009BB2C2F38F0293420FD2826942F02002B1
:105770000AE0D0F81034D21C9BB2C2F38F029342DD
:1057800003D2826942F08062826100960B8A4A7875
:10579000C9689BB200F006F90020F8BD0C00022099
:1057A0002DE9F04700251746032B0446DDF820902D
:1057B0004FF0A048C0F8005E806B40F40010A0637A
:1057C00006D1444504D0D4F8000440F0040003E0BE
:1057D000D4F8000420F00400C4F80004102120468E
:1057E000FFF72EFE2046FFF71BFE00204FF0FF368E
:1057F00007E000BF04EB4011C1F80865C1F80C5583
:10580000401C8742F6D801212046FFF7EDFDC82055
:10581000FBF790F9A5614445666103D10C498022EC
:105820000C4803E00C494FF400720C486262A1621C
:10583000C4F80001B9F1000F03D1A06940F01000D5
:10584000A061A06906490843A0610020BDE8F08777
:1058500080006000E0004000000200010003E00062
:10586000080020A3D0F80024012901F0030322F04E
:105870000302C0F80024D0F8002442EA0302C0F872
:10588000002402D0022903D006E04BF6803101E06B
:1058900041F27071C0F804140020704741698069BA
:1058A00008407047D21C00F580539208002010B5C4
:1058B00003E01C68401C41F8044B9042F9D30846B1
:1058C00010BD38B50446D0F8400420F02E000090FA
:1058D00040F48070C4F84004642004F58864FBF749
:1058E00029F9009820F4807020600A20FBF722F943
:1058F000002038BD10B5C268012922F0C042C26044
:1059000001D021B107E0C16841F0005102E0C16857
:1059100041F08041C1603220FBF70CF9002010BD3E
:1059200030B504468068002520F00100A0601021F9
:105930002046FFF785FD2046FFF772FD5FF000006F
:1059400004EB4011D1F80025401CC0B222F08022A7
:105950000F2842F08042C1F80025F1D900204FF411
:105960007A7300BF04EB4011D1F8002522F4004205
:1059700042F04042C1F800256D1C9D4203D8D1F889
:105980000025002AF8DB401CC0B20F28EAD94FF0EE
:10599000FF30C4F814046061A06840F00100A0600A
:1059A000002030BD10B5029C002C4FF000040DD13A
:1059B000DB1C00EB02309A0800F5805004E000BFC9
:1059C00051F8043B0360641C9442F9D3002010BDDD
:1059D000FEE700000FB4054B10B503A9044A029876
:1059E00000F0FAF810BC5DF814FB0000D96500085F
:1059F000180002200FB41CB50246002007AC002995
:105A00000BD0491ECDE90021054B6A462146069878
:105A100000F0E2F8009A002111701CBC5DF814FB44
:105A200007630008014B024A00F0D6B8D9650008A8
:105A30001800022002E008C8121F08C1002AFAD18B
:105A400070477047002001E001C1121F002AFBD1FE
:105A5000704700002DE9FF5F82B00021DDE90430CE
:105A6000020DDDF840B0034318D044F61050A2F206
:105A7000FF3242431514119801281FD0A5EB0B00EB
:105A8000401C5FEA000A4FF000064E4FDFF83891E5
:105A9000B046504615D5CAF1000413E01198012410
:105AA0004AA3012801D16FEA0B010298119AC0E9BB
:105AB0000031C0E9024206B0BDE8F09FCBF1000022
:105AC000DFE704460021404A491842EB0450CDE983
:105AD000001012E0E00707D032463B4640464946F8
